{
  "items": [
    {
      "timestamp": "2024-04-04T08:12:28.000000Z",
      "fee": {
        "type": "actual",
        "value": "362726"
      },
      "gas_limit": "51818",
      "block": 889911,
      "status": "ok",
      "method": "transfer",
      "confirmations": 373860,
      "type": 0,
      "exchange_rate": null,
      "to": {
        "ens_domain_name": null,
        "hash": "0x16eB0dd82942F6e42b9B21f7EE15DDC735831Db9",
        "implementation_name": null,
        "is_contract": true,
        "is_verified": true,
        "name": "EgoMiniBus",
        "private_tags": [],
        "public_tags": [],
        "watchlist_names": []
      },
      "tx_burnt_fee": null,
      "max_fee_per_gas": null,
      "result": "success",
      "hash": "0xbf29c9f632777262149eb77f93f9e0be2300fb7724dd35d5a75203f6c0ab6b7c",
      "gas_price": "7",
      "priority_fee": null,
      "base_fee_per_gas": "7",
      "from": {
        "ens_domain_name": null,
        "hash": "0x3Ef44A7A4F84dc9EC61012BE102e3a3A1291a18e",
        "implementation_name": null,
        "is_contract": false,
        "is_verified": false,
        "name": null,
        "private_tags": [],
        "public_tags": [],
        "watchlist_names": []
      },
      "token_transfers": null,
      "tx_types": ["contract_call", "token_transfer"],
      "gas_used": "51818",
      "created_contract": null,
      "position": 0,
      "nonce": 22,
      "has_error_in_internal_txs": null,
      "actions": [],
      "decoded_input": {
        "method_call": "transfer(address recipient, uint256 amount)",
        "method_id": "a9059cbb",
        "parameters": [
          {
            "name": "recipient",
            "type": "address",
            "value": "0x6bed691261d13fc28ec55bdfa39ff5302fb23780"
          },
          {
            "name": "amount",
            "type": "uint256",
            "value": "150000000000000000000"
          }
        ]
      },
      "token_transfers_overflow": null,
      "raw_input": "0xa9059cbb0000000000000000000000006bed691261d13fc28ec55bdfa39ff5302fb2378000000000000000000000000000000000000000000000000821ab0d4414980000",
      "value": "0",
      "max_priority_fee_per_gas": null,
      "revert_reason": null,
      "confirmation_duration": [0, 3020],
      "tx_tag": null
    },
    {
      "timestamp": "2024-04-03T22:47:50.000000Z",
      "fee": {
        "type": "actual",
        "value": "362726"
      },
      "gas_limit": "51818",
      "block": 878728,
      "status": "ok",
      "method": "transfer",
      "confirmations": 385043,
      "type": 0,
      "exchange_rate": null,
      "to": {
        "ens_domain_name": null,
        "hash": "0x16eB0dd82942F6e42b9B21f7EE15DDC735831Db9",
        "implementation_name": null,
        "is_contract": true,
        "is_verified": true,
        "name": "EgoMiniBus",
        "private_tags": [],
        "public_tags": [],
        "watchlist_names": []
      },
      "tx_burnt_fee": null,
      "max_fee_per_gas": null,
      "result": "success",
      "hash": "0x0ba791e21da30d64fe26c4be36426900dff9e93fa2dc6ef5b2d5436bd8c701ce",
      "gas_price": "7",
      "priority_fee": null,
      "base_fee_per_gas": "7",
      "from": {
        "ens_domain_name": null,
        "hash": "0x3Ef44A7A4F84dc9EC61012BE102e3a3A1291a18e",
        "implementation_name": null,
        "is_contract": false,
        "is_verified": false,
        "name": null,
        "private_tags": [],
        "public_tags": [],
        "watchlist_names": []
      },
      "token_transfers": null,
      "tx_types": ["contract_call", "token_transfer"],
      "gas_used": "51818",
      "created_contract": null,
      "position": 0,
      "nonce": 21,
      "has_error_in_internal_txs": null,
      "actions": [],
      "decoded_input": {
        "method_call": "transfer(address recipient, uint256 amount)",
        "method_id": "a9059cbb",
        "parameters": [
          {
            "name": "recipient",
            "type": "address",
            "value": "0xb388b6253f47084c0249157be7fea25e1aa15892"
          },
          {
            "name": "amount",
            "type": "uint256",
            "value": "23700000000000000000"
          }
        ]
      },
      "token_transfers_overflow": null,
      "raw_input": "0xa9059cbb000000000000000000000000b388b6253f47084c0249157be7fea25e1aa1589200000000000000000000000000000000000000000000000148e7506e98c20000",
      "value": "0",
      "max_priority_fee_per_gas": null,
      "revert_reason": null,
      "confirmation_duration": [0, 3020],
      "tx_tag": null
    },
    {
      "timestamp": "2024-04-03T22:46:43.000000Z",
      "fee": {
        "type": "actual",
        "value": "242942"
      },
      "gas_limit": "34706",
      "block": 878706,
      "status": "ok",
      "method": "transfer",
      "confirmations": 385065,
      "type": 0,
      "exchange_rate": null,
      "to": {
        "ens_domain_name": null,
        "hash": "0x16eB0dd82942F6e42b9B21f7EE15DDC735831Db9",
        "implementation_name": null,
        "is_contract": true,
        "is_verified": true,
        "name": "EgoMiniBus",
        "private_tags": [],
        "public_tags": [],
        "watchlist_names": []
      },
      "tx_burnt_fee": null,
      "max_fee_per_gas": null,
      "result": "success",
      "hash": "0xa131066c05df2b981f5ea4aa7a16d7d1bf092bc07734ed96ae1741da12fa6fc4",
      "gas_price": "7",
      "priority_fee": null,
      "base_fee_per_gas": "7",
      "from": {
        "ens_domain_name": null,
        "hash": "0x3Ef44A7A4F84dc9EC61012BE102e3a3A1291a18e",
        "implementation_name": null,
        "is_contract": false,
        "is_verified": false,
        "name": null,
        "private_tags": [],
        "public_tags": [],
        "watchlist_names": []
      },
      "token_transfers": null,
      "tx_types": ["contract_call", "token_transfer"],
      "gas_used": "34706",
      "created_contract": null,
      "position": 0,
      "nonce": 20,
      "has_error_in_internal_txs": null,
      "actions": [],
      "decoded_input": {
        "method_call": "transfer(address recipient, uint256 amount)",
        "method_id": "a9059cbb",
        "parameters": [
          {
            "name": "recipient",
            "type": "address",
            "value": "0x3a3893166942abe7fea65b76173e9f6f2d2e566a"
          },
          {
            "name": "amount",
            "type": "uint256",
            "value": "630000000000000000"
          }
        ]
      },
      "token_transfers_overflow": null,
      "raw_input": "0xa9059cbb0000000000000000000000003a3893166942abe7fea65b76173e9f6f2d2e566a00000000000000000000000000000000000000000000000008be35a9807f0000",
      "value": "0",
      "max_priority_fee_per_gas": null,
      "revert_reason": null,
      "confirmation_duration": [0, 3020],
      "tx_tag": null
    },
    {
      "timestamp": "2024-04-03T22:45:21.000000Z",
      "fee": {
        "type": "actual",
        "value": "362726"
      },
      "gas_limit": "51818",
      "block": 878679,
      "status": "ok",
      "method": "transfer",
      "confirmations": 385092,
      "type": 0,
      "exchange_rate": null,
      "to": {
        "ens_domain_name": null,
        "hash": "0x16eB0dd82942F6e42b9B21f7EE15DDC735831Db9",
        "implementation_name": null,
        "is_contract": true,
        "is_verified": true,
        "name": "EgoMiniBus",
        "private_tags": [],
        "public_tags": [],
        "watchlist_names": []
      },
      "tx_burnt_fee": null,
      "max_fee_per_gas": null,
      "result": "success",
      "hash": "0x1dbfd8c491a777d227604ae86a5c4b6808a99aed8df2e95b217e27193cd00fa4",
      "gas_price": "7",
      "priority_fee": null,
      "base_fee_per_gas": "7",
      "from": {
        "ens_domain_name": null,
        "hash": "0x3Ef44A7A4F84dc9EC61012BE102e3a3A1291a18e",
        "implementation_name": null,
        "is_contract": false,
        "is_verified": false,
        "name": null,
        "private_tags": [],
        "public_tags": [],
        "watchlist_names": []
      },
      "token_transfers": null,
      "tx_types": ["contract_call", "token_transfer"],
      "gas_used": "51818",
      "created_contract": null,
      "position": 0,
      "nonce": 19,
      "has_error_in_internal_txs": null,
      "actions": [],
      "decoded_input": {
        "method_call": "transfer(address recipient, uint256 amount)",
        "method_id": "a9059cbb",
        "parameters": [
          {
            "name": "recipient",
            "type": "address",
            "value": "0x71a64ed13011fb63c6bfdbef726055cc355d7ff5"
          },
          {
            "name": "amount",
            "type": "uint256",
            "value": "42710000000000000000"
          }
        ]
      },
      "token_transfers_overflow": null,
      "raw_input": "0xa9059cbb00000000000000000000000071a64ed13011fb63c6bfdbef726055cc355d7ff500000000000000000000000000000000000000000000000250b866b674ef0000",
      "value": "0",
      "max_priority_fee_per_gas": null,
      "revert_reason": null,
      "confirmation_duration": [0, 3020],
      "tx_tag": null
    },
    {
      "timestamp": "2024-04-03T22:44:02.000000Z",
      "fee": {
        "type": "actual",
        "value": "362726"
      },
      "gas_limit": "51818",
      "block": 878653,
      "status": "ok",
      "method": "transfer",
      "confirmations": 385118,
      "type": 0,
      "exchange_rate": null,
      "to": {
        "ens_domain_name": null,
        "hash": "0x16eB0dd82942F6e42b9B21f7EE15DDC735831Db9",
        "implementation_name": null,
        "is_contract": true,
        "is_verified": true,
        "name": "EgoMiniBus",
        "private_tags": [],
        "public_tags": [],
        "watchlist_names": []
      },
      "tx_burnt_fee": null,
      "max_fee_per_gas": null,
      "result": "success",
      "hash": "0xa7c45b3ae5c984ac2d5782b6d9a326d0e302b2da8d8b7dac8614f4bb4da4c810",
      "gas_price": "7",
      "priority_fee": null,
      "base_fee_per_gas": "7",
      "from": {
        "ens_domain_name": null,
        "hash": "0x3Ef44A7A4F84dc9EC61012BE102e3a3A1291a18e",
        "implementation_name": null,
        "is_contract": false,
        "is_verified": false,
        "name": null,
        "private_tags": [],
        "public_tags": [],
        "watchlist_names": []
      },
      "token_transfers": null,
      "tx_types": ["contract_call", "token_transfer"],
      "gas_used": "51818",
      "created_contract": null,
      "position": 0,
      "nonce": 18,
      "has_error_in_internal_txs": null,
      "actions": [],
      "decoded_input": {
        "method_call": "transfer(address recipient, uint256 amount)",
        "method_id": "a9059cbb",
        "parameters": [
          {
            "name": "recipient",
            "type": "address",
            "value": "0x3a3893166942abe7fea65b76173e9f6f2d2e566a"
          },
          {
            "name": "amount",
            "type": "uint256",
            "value": "195000000000000000000"
          }
        ]
      },
      "token_transfers_overflow": null,
      "raw_input": "0xa9059cbb0000000000000000000000003a3893166942abe7fea65b76173e9f6f2d2e566a00000000000000000000000000000000000000000000000a922b2ad8812c0000",
      "value": "0",
      "max_priority_fee_per_gas": null,
      "revert_reason": null,
      "confirmation_duration": [0, 3020],
      "tx_tag": null
    },
    {
      "timestamp": "2024-04-03T22:42:59.000000Z",
      "fee": {
        "type": "actual",
        "value": "362726"
      },
      "gas_limit": "51818",
      "block": 878632,
      "status": "ok",
      "method": "transfer",
      "confirmations": 385139,
      "type": 0,
      "exchange_rate": null,
      "to": {
        "ens_domain_name": null,
        "hash": "0x16eB0dd82942F6e42b9B21f7EE15DDC735831Db9",
        "implementation_name": null,
        "is_contract": true,
        "is_verified": true,
        "name": "EgoMiniBus",
        "private_tags": [],
        "public_tags": [],
        "watchlist_names": []
      },
      "tx_burnt_fee": null,
      "max_fee_per_gas": null,
      "result": "success",
      "hash": "0x6348c17d88e277bd75d30f54f90589150b15e39e2e607851447a484e3b5423b0",
      "gas_price": "7",
      "priority_fee": null,
      "base_fee_per_gas": "7",
      "from": {
        "ens_domain_name": null,
        "hash": "0x3Ef44A7A4F84dc9EC61012BE102e3a3A1291a18e",
        "implementation_name": null,
        "is_contract": false,
        "is_verified": false,
        "name": null,
        "private_tags": [],
        "public_tags": [],
        "watchlist_names": []
      },
      "token_transfers": null,
      "tx_types": ["contract_call", "token_transfer"],
      "gas_used": "51818",
      "created_contract": null,
      "position": 0,
      "nonce": 17,
      "has_error_in_internal_txs": null,
      "actions": [],
      "decoded_input": {
        "method_call": "transfer(address recipient, uint256 amount)",
        "method_id": "a9059cbb",
        "parameters": [
          {
            "name": "recipient",
            "type": "address",
            "value": "0x166b491089c905531506ba9d8342d7ec262b4f9b"
          },
          {
            "name": "amount",
            "type": "uint256",
            "value": "72240000000000000000"
          }
        ]
      },
      "token_transfers_overflow": null,
      "raw_input": "0xa9059cbb000000000000000000000000166b491089c905531506ba9d8342d7ec262b4f9b000000000000000000000000000000000000000000000003ea8809418e380000",
      "value": "0",
      "max_priority_fee_per_gas": null,
      "revert_reason": null,
      "confirmation_duration": [0, 3020],
      "tx_tag": null
    },
    {
      "timestamp": "2024-04-03T22:41:52.000000Z",
      "fee": {
        "type": "actual",
        "value": "362726"
      },
      "gas_limit": "51818",
      "block": 878610,
      "status": "ok",
      "method": "transfer",
      "confirmations": 385161,
      "type": 0,
      "exchange_rate": null,
      "to": {
        "ens_domain_name": null,
        "hash": "0x16eB0dd82942F6e42b9B21f7EE15DDC735831Db9",
        "implementation_name": null,
        "is_contract": true,
        "is_verified": true,
        "name": "EgoMiniBus",
        "private_tags": [],
        "public_tags": [],
        "watchlist_names": []
      },
      "tx_burnt_fee": null,
      "max_fee_per_gas": null,
      "result": "success",
      "hash": "0x89252527b3a2064221dc99bb1ac576007daf165b3af215f84e20c63c92ed14a6",
      "gas_price": "7",
      "priority_fee": null,
      "base_fee_per_gas": "7",
      "from": {
        "ens_domain_name": null,
        "hash": "0x3Ef44A7A4F84dc9EC61012BE102e3a3A1291a18e",
        "implementation_name": null,
        "is_contract": false,
        "is_verified": false,
        "name": null,
        "private_tags": [],
        "public_tags": [],
        "watchlist_names": []
      },
      "token_transfers": null,
      "tx_types": ["contract_call", "token_transfer"],
      "gas_used": "51818",
      "created_contract": null,
      "position": 0,
      "nonce": 16,
      "has_error_in_internal_txs": null,
      "actions": [],
      "decoded_input": {
        "method_call": "transfer(address recipient, uint256 amount)",
        "method_id": "a9059cbb",
        "parameters": [
          {
            "name": "recipient",
            "type": "address",
            "value": "0x98d532e29d1634411b8c8ae6947594d33f40de1d"
          },
          {
            "name": "amount",
            "type": "uint256",
            "value": "20070000000000000000"
          }
        ]
      },
      "token_transfers_overflow": null,
      "raw_input": "0xa9059cbb00000000000000000000000098d532e29d1634411b8c8ae6947594d33f40de1d0000000000000000000000000000000000000000000000011686f6aa22170000",
      "value": "0",
      "max_priority_fee_per_gas": null,
      "revert_reason": null,
      "confirmation_duration": [0, 3020],
      "tx_tag": null
    },
    {
      "timestamp": "2024-04-03T22:40:57.000000Z",
      "fee": {
        "type": "actual",
        "value": "362642"
      },
      "gas_limit": "51806",
      "block": 878592,
      "status": "ok",
      "method": "transfer",
      "confirmations": 385179,
      "type": 0,
      "exchange_rate": null,
      "to": {
        "ens_domain_name": null,
        "hash": "0x16eB0dd82942F6e42b9B21f7EE15DDC735831Db9",
        "implementation_name": null,
        "is_contract": true,
        "is_verified": true,
        "name": "EgoMiniBus",
        "private_tags": [],
        "public_tags": [],
        "watchlist_names": []
      },
      "tx_burnt_fee": null,
      "max_fee_per_gas": null,
      "result": "success",
      "hash": "0xfc0adb6f016b44535ec4ca141146754a7371d424256af1c3c217a09a69213f1b",
      "gas_price": "7",
      "priority_fee": null,
      "base_fee_per_gas": "7",
      "from": {
        "ens_domain_name": null,
        "hash": "0x3Ef44A7A4F84dc9EC61012BE102e3a3A1291a18e",
        "implementation_name": null,
        "is_contract": false,
        "is_verified": false,
        "name": null,
        "private_tags": [],
        "public_tags": [],
        "watchlist_names": []
      },
      "token_transfers": null,
      "tx_types": ["contract_call", "token_transfer"],
      "gas_used": "51806",
      "created_contract": null,
      "position": 0,
      "nonce": 15,
      "has_error_in_internal_txs": null,
      "actions": [],
      "decoded_input": {
        "method_call": "transfer(address recipient, uint256 amount)",
        "method_id": "a9059cbb",
        "parameters": [
          {
            "name": "recipient",
            "type": "address",
            "value": "0x80915ff80027b363ecafec76193bebb18f705009"
          },
          {
            "name": "amount",
            "type": "uint256",
            "value": "44970000000000000000"
          }
        ]
      },
      "token_transfers_overflow": null,
      "raw_input": "0xa9059cbb00000000000000000000000080915ff80027b363ecafec76193bebb18f705009000000000000000000000000000000000000000000000002701588bd1d510000",
      "value": "0",
      "max_priority_fee_per_gas": null,
      "revert_reason": null,
      "confirmation_duration": [0, 3020],
      "tx_tag": null
    },
    {
      "timestamp": "2024-04-03T22:40:09.000000Z",
      "fee": {
        "type": "actual",
        "value": "362726"
      },
      "gas_limit": "51818",
      "block": 878576,
      "status": "ok",
      "method": "transfer",
      "confirmations": 385195,
      "type": 0,
      "exchange_rate": null,
      "to": {
        "ens_domain_name": null,
        "hash": "0x16eB0dd82942F6e42b9B21f7EE15DDC735831Db9",
        "implementation_name": null,
        "is_contract": true,
        "is_verified": true,
        "name": "EgoMiniBus",
        "private_tags": [],
        "public_tags": [],
        "watchlist_names": []
      },
      "tx_burnt_fee": null,
      "max_fee_per_gas": null,
      "result": "success",
      "hash": "0xe02eadf4bb1505ce021c9caa1fb669381e9946df3462b9101d728ca11ea23fb7",
      "gas_price": "7",
      "priority_fee": null,
      "base_fee_per_gas": "7",
      "from": {
        "ens_domain_name": null,
        "hash": "0x3Ef44A7A4F84dc9EC61012BE102e3a3A1291a18e",
        "implementation_name": null,
        "is_contract": false,
        "is_verified": false,
        "name": null,
        "private_tags": [],
        "public_tags": [],
        "watchlist_names": []
      },
      "token_transfers": null,
      "tx_types": ["contract_call", "token_transfer"],
      "gas_used": "51818",
      "created_contract": null,
      "position": 0,
      "nonce": 14,
      "has_error_in_internal_txs": null,
      "actions": [],
      "decoded_input": {
        "method_call": "transfer(address recipient, uint256 amount)",
        "method_id": "a9059cbb",
        "parameters": [
          {
            "name": "recipient",
            "type": "address",
            "value": "0x5d557e26db09daf919d3f088e6bed6d6b7e39c25"
          },
          {
            "name": "amount",
            "type": "uint256",
            "value": "137590000000000000000"
          }
        ]
      },
      "token_transfers_overflow": null,
      "raw_input": "0xa9059cbb0000000000000000000000005d557e26db09daf919d3f088e6bed6d6b7e39c250000000000000000000000000000000000000000000000077571e00455ff0000",
      "value": "0",
      "max_priority_fee_per_gas": null,
      "revert_reason": null,
      "confirmation_duration": [0, 3020],
      "tx_tag": null
    },
    {
      "timestamp": "2024-04-03T22:38:32.000000Z",
      "fee": {
        "type": "actual",
        "value": "362726"
      },
      "gas_limit": "51818",
      "block": 878544,
      "status": "ok",
      "method": "transfer",
      "confirmations": 385227,
      "type": 0,
      "exchange_rate": null,
      "to": {
        "ens_domain_name": null,
        "hash": "0x16eB0dd82942F6e42b9B21f7EE15DDC735831Db9",
        "implementation_name": null,
        "is_contract": true,
        "is_verified": true,
        "name": "EgoMiniBus",
        "private_tags": [],
        "public_tags": [],
        "watchlist_names": []
      },
      "tx_burnt_fee": null,
      "max_fee_per_gas": null,
      "result": "success",
      "hash": "0xab397611b70e9b704b06e5aad1ece04bc340e4f7136dd829a144904c75db692d",
      "gas_price": "7",
      "priority_fee": null,
      "base_fee_per_gas": "7",
      "from": {
        "ens_domain_name": null,
        "hash": "0x3Ef44A7A4F84dc9EC61012BE102e3a3A1291a18e",
        "implementation_name": null,
        "is_contract": false,
        "is_verified": false,
        "name": null,
        "private_tags": [],
        "public_tags": [],
        "watchlist_names": []
      },
      "token_transfers": null,
      "tx_types": ["contract_call", "token_transfer"],
      "gas_used": "51818",
      "created_contract": null,
      "position": 0,
      "nonce": 13,
      "has_error_in_internal_txs": null,
      "actions": [],
      "decoded_input": {
        "method_call": "transfer(address recipient, uint256 amount)",
        "method_id": "a9059cbb",
        "parameters": [
          {
            "name": "recipient",
            "type": "address",
            "value": "0x4d6654c24cac35fed623d7c95d241a15f77781f8"
          },
          {
            "name": "amount",
            "type": "uint256",
            "value": "36550000000000000000"
          }
        ]
      },
      "token_transfers_overflow": null,
      "raw_input": "0xa9059cbb0000000000000000000000004d6654c24cac35fed623d7c95d241a15f77781f8000000000000000000000000000000000000000000000001fb3baf598c870000",
      "value": "0",
      "max_priority_fee_per_gas": null,
      "revert_reason": null,
      "confirmation_duration": [0, 3020],
      "tx_tag": null
    },
    {
      "timestamp": "2024-04-03T22:37:13.000000Z",
      "fee": {
        "type": "actual",
        "value": "362726"
      },
      "gas_limit": "51818",
      "block": 878518,
      "status": "ok",
      "method": "transfer",
      "confirmations": 385253,
      "type": 0,
      "exchange_rate": null,
      "to": {
        "ens_domain_name": null,
        "hash": "0x16eB0dd82942F6e42b9B21f7EE15DDC735831Db9",
        "implementation_name": null,
        "is_contract": true,
        "is_verified": true,
        "name": "EgoMiniBus",
        "private_tags": [],
        "public_tags": [],
        "watchlist_names": []
      },
      "tx_burnt_fee": null,
      "max_fee_per_gas": null,
      "result": "success",
      "hash": "0xd4f02974dca9cf07aa736054e49038d9cfb2810cc6488ba69686f20a6b630d1c",
      "gas_price": "7",
      "priority_fee": null,
      "base_fee_per_gas": "7",
      "from": {
        "ens_domain_name": null,
        "hash": "0x3Ef44A7A4F84dc9EC61012BE102e3a3A1291a18e",
        "implementation_name": null,
        "is_contract": false,
        "is_verified": false,
        "name": null,
        "private_tags": [],
        "public_tags": [],
        "watchlist_names": []
      },
      "token_transfers": null,
      "tx_types": ["contract_call", "token_transfer"],
      "gas_used": "51818",
      "created_contract": null,
      "position": 0,
      "nonce": 12,
      "has_error_in_internal_txs": null,
      "actions": [],
      "decoded_input": {
        "method_call": "transfer(address recipient, uint256 amount)",
        "method_id": "a9059cbb",
        "parameters": [
          {
            "name": "recipient",
            "type": "address",
            "value": "0x10f23bbc5725da2a6d81819dc75dd52670bea527"
          },
          {
            "name": "amount",
            "type": "uint256",
            "value": "263190000000000000000"
          }
        ]
      },
      "token_transfers_overflow": null,
      "raw_input": "0xa9059cbb00000000000000000000000010f23bbc5725da2a6d81819dc75dd52670bea52700000000000000000000000000000000000000000000000e447eb68f430f0000",
      "value": "0",
      "max_priority_fee_per_gas": null,
      "revert_reason": null,
      "confirmation_duration": [0, 3020],
      "tx_tag": null
    },
    {
      "timestamp": "2024-04-03T22:36:27.000000Z",
      "fee": {
        "type": "actual",
        "value": "362726"
      },
      "gas_limit": "51818",
      "block": 878503,
      "status": "ok",
      "method": "transfer",
      "confirmations": 385268,
      "type": 0,
      "exchange_rate": null,
      "to": {
        "ens_domain_name": null,
        "hash": "0x16eB0dd82942F6e42b9B21f7EE15DDC735831Db9",
        "implementation_name": null,
        "is_contract": true,
        "is_verified": true,
        "name": "EgoMiniBus",
        "private_tags": [],
        "public_tags": [],
        "watchlist_names": []
      },
      "tx_burnt_fee": null,
      "max_fee_per_gas": null,
      "result": "success",
      "hash": "0x03189f4caabe22424e0c30ce3363fa107dbfc5751547c2605d199cd4d0462c42",
      "gas_price": "7",
      "priority_fee": null,
      "base_fee_per_gas": "7",
      "from": {
        "ens_domain_name": null,
        "hash": "0x3Ef44A7A4F84dc9EC61012BE102e3a3A1291a18e",
        "implementation_name": null,
        "is_contract": false,
        "is_verified": false,
        "name": null,
        "private_tags": [],
        "public_tags": [],
        "watchlist_names": []
      },
      "token_transfers": null,
      "tx_types": ["contract_call", "token_transfer"],
      "gas_used": "51818",
      "created_contract": null,
      "position": 0,
      "nonce": 11,
      "has_error_in_internal_txs": null,
      "actions": [],
      "decoded_input": {
        "method_call": "transfer(address recipient, uint256 amount)",
        "method_id": "a9059cbb",
        "parameters": [
          {
            "name": "recipient",
            "type": "address",
            "value": "0x2b7267d720ebf5e5a508574cbe6b1ffdece233f2"
          },
          {
            "name": "amount",
            "type": "uint256",
            "value": "49000000000000000000"
          }
        ]
      },
      "token_transfers_overflow": null,
      "raw_input": "0xa9059cbb0000000000000000000000002b7267d720ebf5e5a508574cbe6b1ffdece233f2000000000000000000000000000000000000000000000002a802f8630a240000",
      "value": "0",
      "max_priority_fee_per_gas": null,
      "revert_reason": null,
      "confirmation_duration": [0, 3020],
      "tx_tag": null
    },
    {
      "timestamp": "2024-04-03T22:35:15.000000Z",
      "fee": {
        "type": "actual",
        "value": "362642"
      },
      "gas_limit": "51806",
      "block": 878479,
      "status": "ok",
      "method": "transfer",
      "confirmations": 385292,
      "type": 0,
      "exchange_rate": null,
      "to": {
        "ens_domain_name": null,
        "hash": "0x16eB0dd82942F6e42b9B21f7EE15DDC735831Db9",
        "implementation_name": null,
        "is_contract": true,
        "is_verified": true,
        "name": "EgoMiniBus",
        "private_tags": [],
        "public_tags": [],
        "watchlist_names": []
      },
      "tx_burnt_fee": null,
      "max_fee_per_gas": null,
      "result": "success",
      "hash": "0xdca634cd955b5650dac51028915695f5204f2cabe5808ac01221f411a31624f7",
      "gas_price": "7",
      "priority_fee": null,
      "base_fee_per_gas": "7",
      "from": {
        "ens_domain_name": null,
        "hash": "0x3Ef44A7A4F84dc9EC61012BE102e3a3A1291a18e",
        "implementation_name": null,
        "is_contract": false,
        "is_verified": false,
        "name": null,
        "private_tags": [],
        "public_tags": [],
        "watchlist_names": []
      },
      "token_transfers": null,
      "tx_types": ["contract_call", "token_transfer"],
      "gas_used": "51806",
      "created_contract": null,
      "position": 0,
      "nonce": 10,
      "has_error_in_internal_txs": null,
      "actions": [],
      "decoded_input": {
        "method_call": "transfer(address recipient, uint256 amount)",
        "method_id": "a9059cbb",
        "parameters": [
          {
            "name": "recipient",
            "type": "address",
            "value": "0xe9bd1d6e5e7dd41ce0c170aa56fa617a7a14c251"
          },
          {
            "name": "amount",
            "type": "uint256",
            "value": "12220000000000000000"
          }
        ]
      },
      "token_transfers_overflow": null,
      "raw_input": "0xa9059cbb000000000000000000000000e9bd1d6e5e7dd41ce0c170aa56fa617a7a14c251000000000000000000000000000000000000000000000000a996294173460000",
      "value": "0",
      "max_priority_fee_per_gas": null,
      "revert_reason": null,
      "confirmation_duration": [0, 3020],
      "tx_tag": null
    },
    {
      "timestamp": "2024-04-03T22:34:32.000000Z",
      "fee": {
        "type": "actual",
        "value": "362642"
      },
      "gas_limit": "51806",
      "block": 878465,
      "status": "ok",
      "method": "transfer",
      "confirmations": 385306,
      "type": 0,
      "exchange_rate": null,
      "to": {
        "ens_domain_name": null,
        "hash": "0x16eB0dd82942F6e42b9B21f7EE15DDC735831Db9",
        "implementation_name": null,
        "is_contract": true,
        "is_verified": true,
        "name": "EgoMiniBus",
        "private_tags": [],
        "public_tags": [],
        "watchlist_names": []
      },
      "tx_burnt_fee": null,
      "max_fee_per_gas": null,
      "result": "success",
      "hash": "0xb73eda21f2c3ce2427792f1c9979bd7c7a3f57061c0e00147675801cad6e34b4",
      "gas_price": "7",
      "priority_fee": null,
      "base_fee_per_gas": "7",
      "from": {
        "ens_domain_name": null,
        "hash": "0x3Ef44A7A4F84dc9EC61012BE102e3a3A1291a18e",
        "implementation_name": null,
        "is_contract": false,
        "is_verified": false,
        "name": null,
        "private_tags": [],
        "public_tags": [],
        "watchlist_names": []
      },
      "token_transfers": null,
      "tx_types": ["contract_call", "token_transfer"],
      "gas_used": "51806",
      "created_contract": null,
      "position": 0,
      "nonce": 9,
      "has_error_in_internal_txs": null,
      "actions": [],
      "decoded_input": {
        "method_call": "transfer(address recipient, uint256 amount)",
        "method_id": "a9059cbb",
        "parameters": [
          {
            "name": "recipient",
            "type": "address",
            "value": "0x2465f01a7d499f1340edc2895ad5b8b19cfc9900"
          },
          {
            "name": "amount",
            "type": "uint256",
            "value": "300000000000000000000"
          }
        ]
      },
      "token_transfers_overflow": null,
      "raw_input": "0xa9059cbb0000000000000000000000002465f01a7d499f1340edc2895ad5b8b19cfc990000000000000000000000000000000000000000000000001043561a8829300000",
      "value": "0",
      "max_priority_fee_per_gas": null,
      "revert_reason": null,
      "confirmation_duration": [0, 3020],
      "tx_tag": null
    },
    {
      "timestamp": "2024-04-03T22:33:49.000000Z",
      "fee": {
        "type": "actual",
        "value": "362726"
      },
      "gas_limit": "51818",
      "block": 878451,
      "status": "ok",
      "method": "transfer",
      "confirmations": 385320,
      "type": 0,
      "exchange_rate": null,
      "to": {
        "ens_domain_name": null,
        "hash": "0x16eB0dd82942F6e42b9B21f7EE15DDC735831Db9",
        "implementation_name": null,
        "is_contract": true,
        "is_verified": true,
        "name": "EgoMiniBus",
        "private_tags": [],
        "public_tags": [],
        "watchlist_names": []
      },
      "tx_burnt_fee": null,
      "max_fee_per_gas": null,
      "result": "success",
      "hash": "0x4a7d8bdea067e8e676b9d3849c152dd8b42e64df093a674013907e53dd830d89",
      "gas_price": "7",
      "priority_fee": null,
      "base_fee_per_gas": "7",
      "from": {
        "ens_domain_name": null,
        "hash": "0x3Ef44A7A4F84dc9EC61012BE102e3a3A1291a18e",
        "implementation_name": null,
        "is_contract": false,
        "is_verified": false,
        "name": null,
        "private_tags": [],
        "public_tags": [],
        "watchlist_names": []
      },
      "token_transfers": null,
      "tx_types": ["contract_call", "token_transfer"],
      "gas_used": "51818",
      "created_contract": null,
      "position": 0,
      "nonce": 8,
      "has_error_in_internal_txs": null,
      "actions": [],
      "decoded_input": {
        "method_call": "transfer(address recipient, uint256 amount)",
        "method_id": "a9059cbb",
        "parameters": [
          {
            "name": "recipient",
            "type": "address",
            "value": "0xd1ccc6929771643732c926627aa1dd2e0d27bfa3"
          },
          {
            "name": "amount",
            "type": "uint256",
            "value": "900000000000000000000"
          }
        ]
      },
      "token_transfers_overflow": null,
      "raw_input": "0xa9059cbb000000000000000000000000d1ccc6929771643732c926627aa1dd2e0d27bfa3000000000000000000000000000000000000000000000030ca024f987b900000",
      "value": "0",
      "max_priority_fee_per_gas": null,
      "revert_reason": null,
      "confirmation_duration": [0, 3020],
      "tx_tag": null
    },
    {
      "timestamp": "2024-04-03T22:32:21.000000Z",
      "fee": {
        "type": "actual",
        "value": "362726"
      },
      "gas_limit": "51818",
      "block": 878422,
      "status": "ok",
      "method": "transfer",
      "confirmations": 385349,
      "type": 0,
      "exchange_rate": null,
      "to": {
        "ens_domain_name": null,
        "hash": "0x16eB0dd82942F6e42b9B21f7EE15DDC735831Db9",
        "implementation_name": null,
        "is_contract": true,
        "is_verified": true,
        "name": "EgoMiniBus",
        "private_tags": [],
        "public_tags": [],
        "watchlist_names": []
      },
      "tx_burnt_fee": null,
      "max_fee_per_gas": null,
      "result": "success",
      "hash": "0x316764864bbee031e350cb3f1f196bd26838e7538b7eca9c6c5695a9df0c5289",
      "gas_price": "7",
      "priority_fee": null,
      "base_fee_per_gas": "7",
      "from": {
        "ens_domain_name": null,
        "hash": "0x3Ef44A7A4F84dc9EC61012BE102e3a3A1291a18e",
        "implementation_name": null,
        "is_contract": false,
        "is_verified": false,
        "name": null,
        "private_tags": [],
        "public_tags": [],
        "watchlist_names": []
      },
      "token_transfers": null,
      "tx_types": ["contract_call", "token_transfer"],
      "gas_used": "51818",
      "created_contract": null,
      "position": 0,
      "nonce": 7,
      "has_error_in_internal_txs": null,
      "actions": [],
      "decoded_input": {
        "method_call": "transfer(address recipient, uint256 amount)",
        "method_id": "a9059cbb",
        "parameters": [
          {
            "name": "recipient",
            "type": "address",
            "value": "0x2e29a7e4d26b3ff19a183cd6c537c6a9c3e48ba3"
          },
          {
            "name": "amount",
            "type": "uint256",
            "value": "475990000000000000000"
          }
        ]
      },
      "token_transfers_overflow": null,
      "raw_input": "0xa9059cbb0000000000000000000000002e29a7e4d26b3ff19a183cd6c537c6a9c3e48ba3000000000000000000000000000000000000000000000019cdb02f18ce2f0000",
      "value": "0",
      "max_priority_fee_per_gas": null,
      "revert_reason": null,
      "confirmation_duration": [0, 3020],
      "tx_tag": null
    },
    {
      "timestamp": "2024-04-03T22:31:27.000000Z",
      "fee": {
        "type": "actual",
        "value": "362558"
      },
      "gas_limit": "51794",
      "block": 878404,
      "status": "ok",
      "method": "transfer",
      "confirmations": 385367,
      "type": 0,
      "exchange_rate": null,
      "to": {
        "ens_domain_name": null,
        "hash": "0x16eB0dd82942F6e42b9B21f7EE15DDC735831Db9",
        "implementation_name": null,
        "is_contract": true,
        "is_verified": true,
        "name": "EgoMiniBus",
        "private_tags": [],
        "public_tags": [],
        "watchlist_names": []
      },
      "tx_burnt_fee": null,
      "max_fee_per_gas": null,
      "result": "success",
      "hash": "0xfe0ffa0d4cabe74b7c16de555225407a920df0da63a4bcaa250ac7ea312c3b6d",
      "gas_price": "7",
      "priority_fee": null,
      "base_fee_per_gas": "7",
      "from": {
        "ens_domain_name": null,
        "hash": "0x3Ef44A7A4F84dc9EC61012BE102e3a3A1291a18e",
        "implementation_name": null,
        "is_contract": false,
        "is_verified": false,
        "name": null,
        "private_tags": [],
        "public_tags": [],
        "watchlist_names": []
      },
      "token_transfers": null,
      "tx_types": ["contract_call", "token_transfer"],
      "gas_used": "51794",
      "created_contract": null,
      "position": 0,
      "nonce": 6,
      "has_error_in_internal_txs": null,
      "actions": [],
      "decoded_input": {
        "method_call": "transfer(address recipient, uint256 amount)",
        "method_id": "a9059cbb",
        "parameters": [
          {
            "name": "recipient",
            "type": "address",
            "value": "0xa5ff0fd1a84d004649e97b465779499546654fed"
          },
          {
            "name": "amount",
            "type": "uint256",
            "value": "90000000000000000"
          }
        ]
      },
      "token_transfers_overflow": null,
      "raw_input": "0xa9059cbb000000000000000000000000a5ff0fd1a84d004649e97b465779499546654fed000000000000000000000000000000000000000000000000013fbe85edc90000",
      "value": "0",
      "max_priority_fee_per_gas": null,
      "revert_reason": null,
      "confirmation_duration": [0, 3020],
      "tx_tag": null
    },
    {
      "timestamp": "2024-04-03T22:30:05.000000Z",
      "fee": {
        "type": "actual",
        "value": "362642"
      },
      "gas_limit": "51806",
      "block": 878377,
      "status": "ok",
      "method": "transfer",
      "confirmations": 385394,
      "type": 0,
      "exchange_rate": null,
      "to": {
        "ens_domain_name": null,
        "hash": "0x16eB0dd82942F6e42b9B21f7EE15DDC735831Db9",
        "implementation_name": null,
        "is_contract": true,
        "is_verified": true,
        "name": "EgoMiniBus",
        "private_tags": [],
        "public_tags": [],
        "watchlist_names": []
      },
      "tx_burnt_fee": null,
      "max_fee_per_gas": null,
      "result": "success",
      "hash": "0x92d1ba13bbc72e7dc12a421f21b17fca07c3b3328adb9d8cff0631fc6c4ec410",
      "gas_price": "7",
      "priority_fee": null,
      "base_fee_per_gas": "7",
      "from": {
        "ens_domain_name": null,
        "hash": "0x3Ef44A7A4F84dc9EC61012BE102e3a3A1291a18e",
        "implementation_name": null,
        "is_contract": false,
        "is_verified": false,
        "name": null,
        "private_tags": [],
        "public_tags": [],
        "watchlist_names": []
      },
      "token_transfers": null,
      "tx_types": ["contract_call", "token_transfer"],
      "gas_used": "51806",
      "created_contract": null,
      "position": 0,
      "nonce": 5,
      "has_error_in_internal_txs": null,
      "actions": [],
      "decoded_input": {
        "method_call": "transfer(address recipient, uint256 amount)",
        "method_id": "a9059cbb",
        "parameters": [
          {
            "name": "recipient",
            "type": "address",
            "value": "0xeb7bb9b2c8f5ae94ad8a8ad1b8918e4bc6a41b96"
          },
          {
            "name": "amount",
            "type": "uint256",
            "value": "57000000000000000000"
          }
        ]
      },
      "token_transfers_overflow": null,
      "raw_input": "0xa9059cbb000000000000000000000000eb7bb9b2c8f5ae94ad8a8ad1b8918e4bc6a41b960000000000000000000000000000000000000000000000031708ae0045440000",
      "value": "0",
      "max_priority_fee_per_gas": null,
      "revert_reason": null,
      "confirmation_duration": [0, 3020],
      "tx_tag": null
    },
    {
      "timestamp": "2024-04-03T22:29:16.000000Z",
      "fee": {
        "type": "actual",
        "value": "362726"
      },
      "gas_limit": "51818",
      "block": 878361,
      "status": "ok",
      "method": "transfer",
      "confirmations": 385410,
      "type": 0,
      "exchange_rate": null,
      "to": {
        "ens_domain_name": null,
        "hash": "0x16eB0dd82942F6e42b9B21f7EE15DDC735831Db9",
        "implementation_name": null,
        "is_contract": true,
        "is_verified": true,
        "name": "EgoMiniBus",
        "private_tags": [],
        "public_tags": [],
        "watchlist_names": []
      },
      "tx_burnt_fee": null,
      "max_fee_per_gas": null,
      "result": "success",
      "hash": "0x0e8c8bfcc83c5b2334f4b85d7e09d7253703068f1aad22b6f7402d8a564b9c55",
      "gas_price": "7",
      "priority_fee": null,
      "base_fee_per_gas": "7",
      "from": {
        "ens_domain_name": null,
        "hash": "0x3Ef44A7A4F84dc9EC61012BE102e3a3A1291a18e",
        "implementation_name": null,
        "is_contract": false,
        "is_verified": false,
        "name": null,
        "private_tags": [],
        "public_tags": [],
        "watchlist_names": []
      },
      "token_transfers": null,
      "tx_types": ["contract_call", "token_transfer"],
      "gas_used": "51818",
      "created_contract": null,
      "position": 0,
      "nonce": 4,
      "has_error_in_internal_txs": null,
      "actions": [],
      "decoded_input": {
        "method_call": "transfer(address recipient, uint256 amount)",
        "method_id": "a9059cbb",
        "parameters": [
          {
            "name": "recipient",
            "type": "address",
            "value": "0xd3c5bfa7eea5167587f522175a370f0d32fdf305"
          },
          {
            "name": "amount",
            "type": "uint256",
            "value": "299940000000000000000"
          }
        ]
      },
      "token_transfers_overflow": null,
      "raw_input": "0xa9059cbb000000000000000000000000d3c5bfa7eea5167587f522175a370f0d32fdf3050000000000000000000000000000000000000000000000104280f0d98aaa0000",
      "value": "0",
      "max_priority_fee_per_gas": null,
      "revert_reason": null,
      "confirmation_duration": [0, 3020],
      "tx_tag": null
    },
    {
      "timestamp": "2024-04-03T22:28:00.000000Z",
      "fee": {
        "type": "actual",
        "value": "362726"
      },
      "gas_limit": "51818",
      "block": 878336,
      "status": "ok",
      "method": "transfer",
      "confirmations": 385435,
      "type": 0,
      "exchange_rate": null,
      "to": {
        "ens_domain_name": null,
        "hash": "0x16eB0dd82942F6e42b9B21f7EE15DDC735831Db9",
        "implementation_name": null,
        "is_contract": true,
        "is_verified": true,
        "name": "EgoMiniBus",
        "private_tags": [],
        "public_tags": [],
        "watchlist_names": []
      },
      "tx_burnt_fee": null,
      "max_fee_per_gas": null,
      "result": "success",
      "hash": "0xa8cf569536c963ae43459e3fde06092315f67a0ca9b7a0f6a6266f7633e55b32",
      "gas_price": "7",
      "priority_fee": null,
      "base_fee_per_gas": "7",
      "from": {
        "ens_domain_name": null,
        "hash": "0x3Ef44A7A4F84dc9EC61012BE102e3a3A1291a18e",
        "implementation_name": null,
        "is_contract": false,
        "is_verified": false,
        "name": null,
        "private_tags": [],
        "public_tags": [],
        "watchlist_names": []
      },
      "token_transfers": null,
      "tx_types": ["contract_call", "token_transfer"],
      "gas_used": "51818",
      "created_contract": null,
      "position": 0,
      "nonce": 3,
      "has_error_in_internal_txs": null,
      "actions": [],
      "decoded_input": {
        "method_call": "transfer(address recipient, uint256 amount)",
        "method_id": "a9059cbb",
        "parameters": [
          {
            "name": "recipient",
            "type": "address",
            "value": "0x63af5c8ef9a442e543261b622574bef2052eca30"
          },
          {
            "name": "amount",
            "type": "uint256",
            "value": "112560000000000000000"
          }
        ]
      },
      "token_transfers_overflow": null,
      "raw_input": "0xa9059cbb00000000000000000000000063af5c8ef9a442e543261b622574bef2052eca300000000000000000000000000000000000000000000000061a1573a1adf80000",
      "value": "0",
      "max_priority_fee_per_gas": null,
      "revert_reason": null,
      "confirmation_duration": [0, 3020],
      "tx_tag": null
    },
    {
      "timestamp": "2024-04-03T22:26:41.000000Z",
      "fee": {
        "type": "actual",
        "value": "362726"
      },
      "gas_limit": "51818",
      "block": 878310,
      "status": "ok",
      "method": "transfer",
      "confirmations": 385461,
      "type": 0,
      "exchange_rate": null,
      "to": {
        "ens_domain_name": null,
        "hash": "0x16eB0dd82942F6e42b9B21f7EE15DDC735831Db9",
        "implementation_name": null,
        "is_contract": true,
        "is_verified": true,
        "name": "EgoMiniBus",
        "private_tags": [],
        "public_tags": [],
        "watchlist_names": []
      },
      "tx_burnt_fee": null,
      "max_fee_per_gas": null,
      "result": "success",
      "hash": "0xe14f8a63d68293f19e094fcbd8324d23b7f6e75b63d1d5fc3a09b7ff18fb9c85",
      "gas_price": "7",
      "priority_fee": null,
      "base_fee_per_gas": "7",
      "from": {
        "ens_domain_name": null,
        "hash": "0x3Ef44A7A4F84dc9EC61012BE102e3a3A1291a18e",
        "implementation_name": null,
        "is_contract": false,
        "is_verified": false,
        "name": null,
        "private_tags": [],
        "public_tags": [],
        "watchlist_names": []
      },
      "token_transfers": null,
      "tx_types": ["contract_call", "token_transfer"],
      "gas_used": "51818",
      "created_contract": null,
      "position": 0,
      "nonce": 2,
      "has_error_in_internal_txs": null,
      "actions": [],
      "decoded_input": {
        "method_call": "transfer(address recipient, uint256 amount)",
        "method_id": "a9059cbb",
        "parameters": [
          {
            "name": "recipient",
            "type": "address",
            "value": "0xf58404e7f0ce04558ba87d088c09c19cfd02f750"
          },
          {
            "name": "amount",
            "type": "uint256",
            "value": "100000000000000000000"
          }
        ]
      },
      "token_transfers_overflow": null,
      "raw_input": "0xa9059cbb000000000000000000000000f58404e7f0ce04558ba87d088c09c19cfd02f7500000000000000000000000000000000000000000000000056bc75e2d63100000",
      "value": "0",
      "max_priority_fee_per_gas": null,
      "revert_reason": null,
      "confirmation_duration": [0, 3020],
      "tx_tag": null
    }
  ],
  "next_page_params": {
    "block_number": 878310,
    "fee": "362726",
    "hash": "0xe14f8a63d68293f19e094fcbd8324d23b7f6e75b63d1d5fc3a09b7ff18fb9c85",
    "index": 0,
    "inserted_at": "2024-04-03T22:26:44.621792Z",
    "items_count": 50,
    "value": "0"
  }
}
